:020000040800F2
:1000000000500020010700084707000849070008C2
:100010004B0700084D0700084F07000800000000CC
:100020000000000000000000000000005107000870
:100030005307000800000000550700085707000894
:100040005B0700085D0700085F07000861070008FC
:1000500063070008650700086707000869070008CC
:100060006B0700086D0700086F070008710700089C
:10007000730700087507000877070008790700086C
:100080007B0700087D0700087F070008810700083C
:10009000830700088507000887070008890700080C
:1000A0008B0700088D0700088F07000891070008DC
:1000B00093070008950700089707000899070008AC
:1000C0009B0700089D0700089F070008A10700087C
:1000D000A30700085D060008A7070008A907000895
:1000E000AB070008AD070008AF07000810B5054CC6
:1000F000237833B9044B13B10448AFF300800123D4
:10010000237010BDA8000020000000006409000852
:10011000084B10B51BB108490848AFF300800848E8
:10012000036803B910BD074B002BFBD0BDE810409E
:10013000184700BF00000000AC0000206409000860
:10014000A800002000000000154B002B08BF134B37
:100150009D46A3F5803A00218B460F461348144A6A
:10016000121A00F0E5FB0F4B002B00D098470E4B06
:10017000002B00D098470020002104000D000D48FE
:10018000002802D00C48AFF3008000F0ABFB200049
:10019000290000F07BFA00F091FB00BF000008008E
:1001A000005000200000000000000000A800002017
:1001B000C8000020000000000000000008B56FF03B
:1001C000040000F071F8084B084A1B680848A2FBBD
:1001D0000323C3F34753C3EB431203EB82020549E6
:1001E000D20003700A8008BD3C00002083DE1B4360
:1001F000C4000020C60000200D4B10B419460D4A63
:100200000024128800FB02F058609C601A6842F0DB
:1002100001021A600B68064A03F00113012BF9D0A2
:100220001368002123F001031360916010BC704734
:1002300010E000E0C6000020F0B50D4C83B004F1E2
:10024000280710260325E068012100F0F9F823892A
:10025000606801A914348DF807608DF80650ADF878
:10026000043000F02DF8BC42EDD103B0F0BD00BF6A
:1002700000000020044B00EB800003EB80000189AC
:100280000122406800F088B800000020054B00EB18
:10029000800003EB800042680189D3684B40D36043
:1002A000704700BF00000020044A042813680CBFF8
:1002B00043F0040323F004031360704710E000E0F0
:1002C000CB782DE9F04103F00F06DB0648BF8B78B1
:1002D0000C8848BF1E4314F0FF0F26D0056800238A
:1002E00001274FF00F0803E00133082B1BD00C88C7
:1002F00007FA03F232EA0404F6D19C0091F803E015
:1003000008FA04FC25EA0C0506FA04F4BEF1280FED
:1003100045EA040538D0BEF1480F03F1010308BFD8
:100320000261082BE3D105600C88FF2C2AD94568AF
:10033000002301274FF00F0C03E00133082B20D0DE
:100340000C8803F1080207FA02F232EA0404F4D13D
:1003500091F803E09C00BEF1280F04BF426191F8C0
:1003600003E00CFA04F8BEF1480F03F1010325EA9B
:10037000080506FA04F408BF0261082B45EA0405E3
:10038000DED14560BDE8F0814261ADE78368194286
:1003900014BF0120002070470AB941617047016114
:1003A000704700BF30B4214A536803F00C03042B9C
:1003B00006D0082B25D01BB11D4A1346026001E070
:1003C0001B4B0360194A1B4C51681B4DC1F30311B1
:1003D000615CCB4043605168C1F30221615C23FA48
:1003E00001F181605168C1F3C221615CCB40C360FF
:1003F0005268C2F38132AA5C30BCB3FBF2F30361F2
:10040000704753685168C3F38343C90303F1020380
:1004100007D55268920304D4054A02FB03F3036034
:10042000D0E7064A02FB03F30360CBE7001002406B
:1004300000127A002C0000202800002000093D0056
:1004400029B9054A936923EA000090617047024B7D
:100450009A691043986170470010024030B5044615
:100460000D46038ACA889BB223F440531343038288
:1004700082890B89888892B24989034322F4B05259
:100480000B4322F00C0213439BB2A381A38AAA89D7
:100490009BB223F4407387B01343A38201A8FFF7F4
:1004A00081FF04991A48039BA289844208BF0B4626
:1004B00012F4004F2A6803EB830314BF520092002A
:1004C00003EB8303B3FBF2F3124DA189A5FB0320D9
:1004D0006422400900FB12330A044FEA00100AD4D8
:1004E0001A013232A5FB0223C3F3431303439BB229
:1004F000238107B030BDD9003231A5FB0131C1F3F2
:10050000421242EA00039BB2238107B030BD00BF14
:10051000003801401F85EB51838929B923F400532A
:100520001B041B0C838170479BB243F400538381EF
:10053000704700BF10B401F01F04C1F34211012342
:10054000012903FA04F30FD002290CBF1030143034
:100550002AB9026822EA0303036010BC70470268EC
:100560001343036010BC70470C30F1E7C1F308017E
:10057000818070478088C0F308007047C1F3421241
:1005800010B4012301F01F04012A03FA04F315D06B
:10059000022A0CBF028A828A92B21340028892B267
:1005A0004BB10123090A03FA01F10A4214BF1846AC
:1005B000002010BC7047184610BC7047828992B268
:1005C0001340EBE770B5224E86B0012144F20500DE
:1005D000FFF736FF1F4C0325304601A94FF4007288
:1005E0001823ADF804208DF806508DF80730FFF77A
:1005F00067FE4FF48062042301A93046ADF8042061
:100600008DF807308DF80650FFF75AFE204601217D
:10061000FFF782FF4FF41655002320460C2202A953
:10062000ADF80C30ADF80E30ADF81030ADF8143038
:10063000ADF812200295FFF711FF2046012240F28B
:100640002551FFF777FF044B20225A6006B070BD9A
:10065000000801400038014000E100E008B540F228
:1006600025510948FFF78AFF00B908BD0648FFF782
:1006700081FFC0B27428F8D1BDE8084046F66F414A
:100680000148FFF773BF00BF0038014000B583B0D9
:1006900000F092F8FFF792FDFFF7CEFD0121082050
:1006A000FFF7CEFE042202234FF400440DEB0201BB
:1006B00012488DF807208DF80630ADF80440FFF79A
:1006C000FFFDFFF77FFF09E00020FFF7DFFD0120BE
:1006D000FFF7DCFD4FF4FA70FFF78EFD4FF4004199
:1006E0000648FFF753FE04460028EDD10120FFF72E
:1006F000C1FD2046FFF7BEFDECE700BF000C014046
:100700000649074A074B9A42BEBF51F8040B42F80C
:10071000040BF8E7044880470448004770090008C4
:1007200000000020A8000020B907000849010008C7
:100730001F49204A002301E041F8043B9142FBD3CA
:10074000FFF7A4FFFEE7FEE7FEE7FEE7FEE7FEE7B2
:10075000FEE7FEE7FEE7FEE7FEE7FEE7FEE7FEE771
:10076000FEE7FEE7FEE7FEE7FEE7FEE7FEE7FEE761
:10077000FEE7FEE7FEE7FEE7FEE7FEE7FEE7FEE751
:10078000FEE7FEE7FEE7FEE7FEE7FEE7FEE7FEE741
:10079000FEE7FEE7FEE7FEE7FEE7FEE7FEE7FEE731
:1007A000FEE7FEE7FEE7FEE7FEE7FEE7FEE7FEE721
:1007B000A8000020C800002030B43C4B3C49186819
:1007C00082B040F0010018605D6800202940596047
:1007D00019684FF41F0421F0847121F480311960ED
:1007E00019681A4621F480211960596821F4FE0124
:1007F00059609C6000900190196841F48031196043
:1008000003E0009BB3F5A06F09D0136803F4003335
:100810000193009B01330093019B002BF1D0234BEC
:100820001B6813F4003318BF01230193019B012BB4
:1008300006D0204B4FF000629A6002B030BC704787
:100840001D4A1A4B1068194640F0100010601068DD
:1008500020F003001060106840F0020010605A6839
:100860005A605A685A605A6842F480625A605A68FC
:1008700022F47C125A605A6842F4A8125A601A682C
:1008800042F080721A600B68084A9B01FBD5114642
:10089000536823F003035360536843F0020353602B
:1008A0004B6803F00C03082BFAD1C2E7001002409A
:1008B0000000FFF800ED00E00020024008B5074B03
:1008C000044613B10021AFF30080054B1868836A1A
:1008D00003B19847204600F033F800BF0000000045
:1008E000600900080E4B70B51E460E4C0025E41A38
:1008F000A410A54204D056F8253098470135F8E7F2
:1009000000F020F8084B094C1E46E41AA4100025FC
:10091000A54204D056F8253098470135F8E770BD58
:10092000A0000020A0000020A0000020A4000020C3
:1009300003460244934202D003F8011BFAE77047D2
:10094000FEE70000F8B500BFF8BC08BC9E46704743
:10095000F8B500BFF8BC08BC9E46704743000000D5
:0809600040000020000000002F
:08096800E0F7FF7F0100000031
:1009700000000000001001400020000010000000F6
:100980000000000001000000000C01400001000018
:10099000080000000000000002040608000000003B
:1009A000010203040102030406070809007E56033E
:1009B0000000000000000000000000000000000037
:1009C0000000000000000000000000000000000027
:1009D0005C090008000000000000000000000000AA
:1009E0000000000000000000000000000000000007
:1009F00000000000000000000000000000000000F7
:100A000000000000000000000000000000000000E6
:080A100011010008ED000008CF
:0400000508000000EF
:00000001FF
